{
  "_format": "hh-sol-artifact-1",
  "contractName": "PrescriptionValidation",
  "sourceName": "contracts/PrescriptionValidation.sol",
  "abi": [
    {
      "inputs": [
        {
          "internalType": "bytes32",
          "name": "hash",
          "type": "bytes32"
        }
      ],
      "name": "storePrescription",
      "outputs": [],
      "stateMutability": "nonpayable",
      "type": "function"
    },
    {
      "inputs": [
        {
          "internalType": "bytes32",
          "name": "hash",
          "type": "bytes32"
        }
      ],
      "name": "verifyPrescription",
      "outputs": [
        {
          "internalType": "bool",
          "name": "",
          "type": "bool"
        }
      ],
      "stateMutability": "view",
      "type": "function"
    }
  ],
  "bytecode": "0x608060405234801561001057600080fd5b506101a9806100206000396000f3fe608060405234801561001057600080fd5b50600436106100365760003560e01c8063a15e3cae1461003b578063f971f3f114610057575b600080fd5b610055600480360381019061005091906100f3565b610087565b005b610071600480360381019061006c91906100f3565b6100b5565b60405161007e919061012b565b60405180910390f35b600160008083815260200190815260200160002060006101000a81548160ff02191690831515021790555050565b600080600083815260200190815260200160002060009054906101000a900460ff169050919050565b6000813590506100ed8161015c565b92915050565b60006020828403121561010557600080fd5b6000610113848285016100de565b91505092915050565b61012581610146565b82525050565b6000602082019050610140600083018461011c565b92915050565b60008115159050919050565b6000819050919050565b61016581610152565b811461017057600080fd5b5056fea26469706673582212201a1c5e37ca9883f3103386b278a6838c3425ab2b511f664438edefe0c5cba5f964736f6c63430008000033",
  "linkReferences": {},
  "deployedLinkReferences": {}
}